{"abi":[{"type":"constructor","inputs":[{"name":"_paymentToken","type":"address","internalType":"contract IERC20"},{"name":"initialOwner","type":"address","internalType":"address"}],"stateMutability":"nonpayable"},{"type":"function","name":"DISPUTE_PERIOD","inputs":[],"outputs":[{"name":"","type":"uint256","internalType":"uint256"}],"stateMutability":"view"},{"type":"function","name":"canRefund","inputs":[{"name":"_orderId","type":"uint256","internalType":"uint256"}],"outputs":[{"name":"","type":"bool","internalType":"bool"}],"stateMutability":"view"},{"type":"function","name":"completeEscrow","inputs":[{"name":"_orderId","type":"uint256","internalType":"uint256"}],"outputs":[],"stateMutability":"nonpayable"},{"type":"function","name":"createEscrow","inputs":[{"name":"_seller","type":"address","internalType":"address"},{"name":"_buyer","type":"address","internalType":"address"},{"name":"_amount","type":"uint256","internalType":"uint256"}],"outputs":[{"name":"","type":"uint256","internalType":"uint256"}],"stateMutability":"nonpayable"},{"type":"function","name":"escrowOrders","inputs":[{"name":"","type":"uint256","internalType":"uint256"}],"outputs":[{"name":"buyer","type":"address","internalType":"address"},{"name":"seller","type":"address","internalType":"address"},{"name":"amount","type":"uint256","internalType":"uint256"},{"name":"isCompleted","type":"bool","internalType":"bool"},{"name":"isRefunded","type":"bool","internalType":"bool"},{"name":"createdAt","type":"uint256","internalType":"uint256"},{"name":"isDisputed","type":"bool","internalType":"bool"}],"stateMutability":"view"},{"type":"function","name":"orderCount","inputs":[],"outputs":[{"name":"","type":"uint256","internalType":"uint256"}],"stateMutability":"view"},{"type":"function","name":"owner","inputs":[],"outputs":[{"name":"","type":"address","internalType":"address"}],"stateMutability":"view"},{"type":"function","name":"paused","inputs":[],"outputs":[{"name":"","type":"bool","internalType":"bool"}],"stateMutability":"view"},{"type":"function","name":"paymentToken","inputs":[],"outputs":[{"name":"","type":"address","internalType":"contract IERC20"}],"stateMutability":"view"},{"type":"function","name":"raiseDispute","inputs":[{"name":"_orderId","type":"uint256","internalType":"uint256"}],"outputs":[],"stateMutability":"nonpayable"},{"type":"function","name":"refundEscrow","inputs":[{"name":"_orderId","type":"uint256","internalType":"uint256"}],"outputs":[],"stateMutability":"nonpayable"},{"type":"function","name":"renounceOwnership","inputs":[],"outputs":[],"stateMutability":"nonpayable"},{"type":"function","name":"resolveDispute","inputs":[{"name":"_orderId","type":"uint256","internalType":"uint256"},{"name":"_approve","type":"bool","internalType":"bool"}],"outputs":[],"stateMutability":"nonpayable"},{"type":"function","name":"transferOwnership","inputs":[{"name":"newOwner","type":"address","internalType":"address"}],"outputs":[],"stateMutability":"nonpayable"},{"type":"event","name":"EscrowCompleted","inputs":[{"name":"orderId","type":"uint256","indexed":true,"internalType":"uint256"}],"anonymous":false},{"type":"event","name":"EscrowCreated","inputs":[{"name":"orderId","type":"uint256","indexed":true,"internalType":"uint256"},{"name":"buyer","type":"address","indexed":true,"internalType":"address"},{"name":"seller","type":"address","indexed":true,"internalType":"address"},{"name":"amount","type":"uint256","indexed":false,"internalType":"uint256"}],"anonymous":false},{"type":"event","name":"EscrowDisputed","inputs":[{"name":"orderId","type":"uint256","indexed":true,"internalType":"uint256"}],"anonymous":false},{"type":"event","name":"EscrowRefunded","inputs":[{"name":"orderId","type":"uint256","indexed":true,"internalType":"uint256"}],"anonymous":false},{"type":"event","name":"EscrowResolved","inputs":[{"name":"orderId","type":"uint256","indexed":true,"internalType":"uint256"},{"name":"approved","type":"bool","indexed":false,"internalType":"bool"}],"anonymous":false},{"type":"event","name":"OwnershipTransferred","inputs":[{"name":"previousOwner","type":"address","indexed":true,"internalType":"address"},{"name":"newOwner","type":"address","indexed":true,"internalType":"address"}],"anonymous":false},{"type":"event","name":"Paused","inputs":[{"name":"account","type":"address","indexed":false,"internalType":"address"}],"anonymous":false},{"type":"event","name":"Unpaused","inputs":[{"name":"account","type":"address","indexed":false,"internalType":"address"}],"anonymous":false},{"type":"error","name":"EnforcedPause","inputs":[]},{"type":"error","name":"ExpectedPause","inputs":[]},{"type":"error","name":"OwnableInvalidOwner","inputs":[{"name":"owner","type":"address","internalType":"address"}]},{"type":"error","name":"OwnableUnauthorizedAccount","inputs":[{"name":"account","type":"address","internalType":"address"}]},{"type":"error","name":"ReentrancyGuardReentrantCall","inputs":[]}],"bytecode":{"object":"0x60a060405234801561000f575f5ffd5b5060405161208d38038061208d8339818101604052810190610031919061032a565b805f73ffffffffffffffffffffffffffffffffffffffff168173ffffffffffffffffffffffffffffffffffffffff16036100a2575f6040517f1e4fbdf70000000000000000000000000000000000000000000000000000000081526004016100999190610377565b60405180910390fd5b6100b1816101d060201b60201c565b50600180819055505f73ffffffffffffffffffffffffffffffffffffffff168273ffffffffffffffffffffffffffffffffffffffff1603610127576040517f08c379a000000000000000000000000000000000000000000000000000000000815260040161011e906103ea565b60405180910390fd5b5f73ffffffffffffffffffffffffffffffffffffffff168173ffffffffffffffffffffffffffffffffffffffff1603610195576040517f08c379a000000000000000000000000000000000000000000000000000000000815260040161018c90610452565b60405180910390fd5b8173ffffffffffffffffffffffffffffffffffffffff1660808173ffffffffffffffffffffffffffffffffffffffff16815250505050610470565b5f5f5f9054906101000a900473ffffffffffffffffffffffffffffffffffffffff169050815f5f6101000a81548173ffffffffffffffffffffffffffffffffffffffff021916908373ffffffffffffffffffffffffffffffffffffffff1602179055508173ffffffffffffffffffffffffffffffffffffffff168173ffffffffffffffffffffffffffffffffffffffff167f8be0079c531659141344cd1fd0a4f28419497f9722a3daafe3b4186f6b6457e060405160405180910390a35050565b5f5ffd5b5f73ffffffffffffffffffffffffffffffffffffffff82169050919050565b5f6102be82610295565b9050919050565b5f6102cf826102b4565b9050919050565b6102df816102c5565b81146102e9575f5ffd5b50565b5f815190506102fa816102d6565b92915050565b610309816102b4565b8114610313575f5ffd5b50565b5f8151905061032481610300565b92915050565b5f5f604083850312156103405761033f610291565b5b5f61034d858286016102ec565b925050602061035e85828601610316565b9150509250929050565b610371816102b4565b82525050565b5f60208201905061038a5f830184610368565b92915050565b5f82825260208201905092915050565b7f496e76616c696420746f6b656e000000000000000000000000000000000000005f82015250565b5f6103d4600d83610390565b91506103df826103a0565b602082019050919050565b5f6020820190508181035f830152610401816103c8565b9050919050565b7f496e76616c6964206f776e6572000000000000000000000000000000000000005f82015250565b5f61043c600d83610390565b915061044782610408565b602082019050919050565b5f6020820190508181035f83015261046981610430565b9050919050565b608051611bf76104965f395f81816102b601528181610df901526110680152611bf75ff3fe608060405234801561000f575f5ffd5b50600436106100e8575f3560e01c8063a5bbe22b1161008a578063df3e0a1d11610064578063df3e0a1d14610210578063f2fde38b1461022c578063fa44b37714610248578063fc8cc92b1461027e576100e8565b8063a5bbe22b146101a6578063a5c1674e146101c4578063c3617650146101e0576100e8565b8063356f9dfd116100c6578063356f9dfd146101445780635c975abb14610160578063715018a61461017e5780638da5cb5b14610188576100e8565b80632453ffa8146100ec5780633013ce291461010a57806334b25ee214610128575b5f5ffd5b6100f46102ae565b60405161010191906113a9565b60405180910390f35b6101126102b4565b60405161011f919061143c565b60405180910390f35b610142600480360381019061013d91906114b8565b6102d8565b005b61015e600480360381019061015991906114f6565b6103c2565b005b6101686103ee565b6040516101759190611530565b60405180910390f35b610186610403565b005b610190610416565b60405161019d9190611569565b60405180910390f35b6101ae61043d565b6040516101bb91906113a9565b60405180910390f35b6101de60048036038101906101d991906114f6565b610444565b005b6101fa60048036038101906101f591906115ac565b6105ce565b60405161020791906113a9565b60405180910390f35b61022a600480360381019061022591906114f6565b610891565b005b610246600480360381019061024191906115fc565b6108bd565b005b610262600480360381019061025d91906114f6565b610941565b6040516102759796959493929190611627565b60405180910390f35b610298600480360381019061029391906114f6565b6109e2565b6040516102a59190611530565b60405180910390f35b60045481565b7f000000000000000000000000000000000000000000000000000000000000000081565b6102e0610b82565b5f60035f8481526020019081526020015f209050806005015f9054906101000a900460ff16610344576040517f08c379a000000000000000000000000000000000000000000000000000000000815260040161033b906116ee565b60405180910390fd5b5f816005015f6101000a81548160ff021916908315150217905550610367610c09565b811561037b5761037683610c6a565b610385565b61038483610f29565b5b827fb3417abc93448b7060e27a626f45e14f179f6d375b8f2169677247f598ae4332836040516103b59190611530565b60405180910390a2505050565b6103ca610b82565b6103d2611197565b6103da6111dd565b6103e381610f29565b6103eb61121e565b50565b5f60025f9054906101000a900460ff16905090565b61040b610b82565b6104145f611227565b565b5f5f5f9054906101000a900473ffffffffffffffffffffffffffffffffffffffff16905090565b62093a8081565b5f60035f8381526020019081526020015f209050805f015f9054906101000a900473ffffffffffffffffffffffffffffffffffffffff1673ffffffffffffffffffffffffffffffffffffffff163373ffffffffffffffffffffffffffffffffffffffff1614806104e657506104b7610416565b73ffffffffffffffffffffffffffffffffffffffff163373ffffffffffffffffffffffffffffffffffffffff16145b610525576040517f08c379a000000000000000000000000000000000000000000000000000000000815260040161051c90611756565b60405180910390fd5b62093a80816004015461053891906117a1565b4210610579576040517f08c379a00000000000000000000000000000000000000000000000000000000081526004016105709061181e565b60405180910390fd5b6001816005015f6101000a81548160ff02191690831515021790555061059d6112e8565b817f7ce7831fed9a800b1aa5e7ca21034bf7b95efc31a196459012cf8b8eb42b7dac60405160405180910390a25050565b5f6105d7610b82565b6105df6111dd565b5f73ffffffffffffffffffffffffffffffffffffffff168473ffffffffffffffffffffffffffffffffffffffff160361064d576040517f08c379a000000000000000000000000000000000000000000000000000000000815260040161064490611886565b60405180910390fd5b5f821161068f576040517f08c379a0000000000000000000000000000000000000000000000000000000008152600401610686906118ee565b60405180910390fd5b60045f8154809291906106a19061190c565b91905055506040518060e001604052808473ffffffffffffffffffffffffffffffffffffffff1681526020018573ffffffffffffffffffffffffffffffffffffffff1681526020018381526020015f151581526020015f151581526020014281526020015f151581525060035f60045481526020019081526020015f205f820151815f015f6101000a81548173ffffffffffffffffffffffffffffffffffffffff021916908373ffffffffffffffffffffffffffffffffffffffff1602179055506020820151816001015f6101000a81548173ffffffffffffffffffffffffffffffffffffffff021916908373ffffffffffffffffffffffffffffffffffffffff160217905550604082015181600201556060820151816003015f6101000a81548160ff02191690831515021790555060808201518160030160016101000a81548160ff02191690831515021790555060a0820151816004015560c0820151816005015f6101000a81548160ff0219169083151502179055509050508373ffffffffffffffffffffffffffffffffffffffff168373ffffffffffffffffffffffffffffffffffffffff166004547f9405ad0a6208539879349284d71265479b1623846f70303da1f9890d6e8c10a78560405161087d91906113a9565b60405180910390a460045490509392505050565b610899610b82565b6108a1611197565b6108a96111dd565b6108b281610c6a565b6108ba61121e565b50565b6108c5610b82565b5f73ffffffffffffffffffffffffffffffffffffffff168173ffffffffffffffffffffffffffffffffffffffff1603610935575f6040517f1e4fbdf700000000000000000000000000000000000000000000000000000000815260040161092c9190611569565b60405180910390fd5b61093e81611227565b50565b6003602052805f5260405f205f91509050805f015f9054906101000a900473ffffffffffffffffffffffffffffffffffffffff1690806001015f9054906101000a900473ffffffffffffffffffffffffffffffffffffffff1690806002015490806003015f9054906101000a900460ff16908060030160019054906101000a900460ff1690806004015490806005015f9054906101000a900460ff16905087565b5f5f60035f8481526020019081526020015f206040518060e00160405290815f82015f9054906101000a900473ffffffffffffffffffffffffffffffffffffffff1673ffffffffffffffffffffffffffffffffffffffff1673ffffffffffffffffffffffffffffffffffffffff168152602001600182015f9054906101000a900473ffffffffffffffffffffffffffffffffffffffff1673ffffffffffffffffffffffffffffffffffffffff1673ffffffffffffffffffffffffffffffffffffffff16815260200160028201548152602001600382015f9054906101000a900460ff161515151581526020016003820160019054906101000a900460ff1615151515815260200160048201548152602001600582015f9054906101000a900460ff16151515158152505090505f73ffffffffffffffffffffffffffffffffffffffff16815f015173ffffffffffffffffffffffffffffffffffffffff1614158015610b4f57508060600151155b8015610b5d57508060800151155b8015610b7a575062093a808160a00151610b7791906117a1565b42115b915050919050565b610b8a61134a565b73ffffffffffffffffffffffffffffffffffffffff16610ba8610416565b73ffffffffffffffffffffffffffffffffffffffff1614610c0757610bcb61134a565b6040517f118cdaa7000000000000000000000000000000000000000000000000000000008152600401610bfe9190611569565b60405180910390fd5b565b610c11611351565b5f60025f6101000a81548160ff0219169083151502179055507f5db9ee0a495bf2e6ff9c91a7834c1ba4fdd244a5e8aa4e537bd38aeae4b073aa610c5361134a565b604051610c609190611569565b60405180910390a1565b610c72610b82565b610c7a6111dd565b5f60035f8381526020019081526020015f2090505f73ffffffffffffffffffffffffffffffffffffffff16815f015f9054906101000a900473ffffffffffffffffffffffffffffffffffffffff1673ffffffffffffffffffffffffffffffffffffffff1603610d1e576040517f08c379a0000000000000000000000000000000000000000000000000000000008152600401610d159061199d565b60405180910390fd5b806003015f9054906101000a900460ff16158015610d4b57508060030160019054906101000a900460ff16155b610d8a576040517f08c379a0000000000000000000000000000000000000000000000000000000008152600401610d8190611a05565b60405180910390fd5b806005015f9054906101000a900460ff1615610ddb576040517f08c379a0000000000000000000000000000000000000000000000000000000008152600401610dd290611a6d565b60405180910390fd5b6001816003015f6101000a81548160ff0219169083151502179055507f000000000000000000000000000000000000000000000000000000000000000073ffffffffffffffffffffffffffffffffffffffff1663a9059cbb826001015f9054906101000a900473ffffffffffffffffffffffffffffffffffffffff1683600201546040518363ffffffff1660e01b8152600401610e79929190611a8b565b6020604051808303815f875af1158015610e95573d5f5f3e3d5ffd5b505050506040513d601f19601f82011682018060405250810190610eb99190611ac6565b610ef8576040517f08c379a0000000000000000000000000000000000000000000000000000000008152600401610eef90611b3b565b60405180910390fd5b817f9285bd636dda01bef18996aa38303bb742f6c67a6941646dddb17630cb492c2e60405160405180910390a25050565b610f31610b82565b610f396111dd565b5f60035f8381526020019081526020015f2090505f73ffffffffffffffffffffffffffffffffffffffff16815f015f9054906101000a900473ffffffffffffffffffffffffffffffffffffffff1673ffffffffffffffffffffffffffffffffffffffff1603610fdd576040517f08c379a0000000000000000000000000000000000000000000000000000000008152600401610fd49061199d565b60405180910390fd5b806003015f9054906101000a900460ff1615801561100a57508060030160019054906101000a900460ff16155b611049576040517f08c379a000000000000000000000000000000000000000000000000000000000815260040161104090611a05565b60405180910390fd5b60018160030160016101000a81548160ff0219169083151502179055507f000000000000000000000000000000000000000000000000000000000000000073ffffffffffffffffffffffffffffffffffffffff1663a9059cbb825f015f9054906101000a900473ffffffffffffffffffffffffffffffffffffffff1683600201546040518363ffffffff1660e01b81526004016110e7929190611a8b565b6020604051808303815f875af1158015611103573d5f5f3e3d5ffd5b505050506040513d601f19601f820116820180604052508101906111279190611ac6565b611166576040517f08c379a000000000000000000000000000000000000000000000000000000000815260040161115d90611ba3565b60405180910390fd5b817f2babb5cd458b6d41108d6d793a75e29ca524e7caa20e2da6c994462010920a7260405160405180910390a25050565b6002600154036111d3576040517f3ee5aeb500000000000000000000000000000000000000000000000000000000815260040160405180910390fd5b6002600181905550565b6111e56103ee565b1561121c576040517fd93c066500000000000000000000000000000000000000000000000000000000815260040160405180910390fd5b565b60018081905550565b5f5f5f9054906101000a900473ffffffffffffffffffffffffffffffffffffffff169050815f5f6101000a81548173ffffffffffffffffffffffffffffffffffffffff021916908373ffffffffffffffffffffffffffffffffffffffff1602179055508173ffffffffffffffffffffffffffffffffffffffff168173ffffffffffffffffffffffffffffffffffffffff167f8be0079c531659141344cd1fd0a4f28419497f9722a3daafe3b4186f6b6457e060405160405180910390a35050565b6112f06111dd565b600160025f6101000a81548160ff0219169083151502179055507f62e78cea01bee320cd4e420270b5ea74000d11b0c9f74754ebdbfc544b05a25861133361134a565b6040516113409190611569565b60405180910390a1565b5f33905090565b6113596103ee565b61138f576040517f8dfc202b00000000000000000000000000000000000000000000000000000000815260040160405180910390fd5b565b5f819050919050565b6113a381611391565b82525050565b5f6020820190506113bc5f83018461139a565b92915050565b5f73ffffffffffffffffffffffffffffffffffffffff82169050919050565b5f819050919050565b5f6114046113ff6113fa846113c2565b6113e1565b6113c2565b9050919050565b5f611415826113ea565b9050919050565b5f6114268261140b565b9050919050565b6114368161141c565b82525050565b5f60208201905061144f5f83018461142d565b92915050565b5f5ffd5b61146281611391565b811461146c575f5ffd5b50565b5f8135905061147d81611459565b92915050565b5f8115159050919050565b61149781611483565b81146114a1575f5ffd5b50565b5f813590506114b28161148e565b92915050565b5f5f604083850312156114ce576114cd611455565b5b5f6114db8582860161146f565b92505060206114ec858286016114a4565b9150509250929050565b5f6020828403121561150b5761150a611455565b5b5f6115188482850161146f565b91505092915050565b61152a81611483565b82525050565b5f6020820190506115435f830184611521565b92915050565b5f611553826113c2565b9050919050565b61156381611549565b82525050565b5f60208201905061157c5f83018461155a565b92915050565b61158b81611549565b8114611595575f5ffd5b50565b5f813590506115a681611582565b92915050565b5f5f5f606084860312156115c3576115c2611455565b5b5f6115d086828701611598565b93505060206115e186828701611598565b92505060406115f28682870161146f565b9150509250925092565b5f6020828403121561161157611610611455565b5b5f61161e84828501611598565b91505092915050565b5f60e08201905061163a5f83018a61155a565b611647602083018961155a565b611654604083018861139a565b6116616060830187611521565b61166e6080830186611521565b61167b60a083018561139a565b61168860c0830184611521565b98975050505050505050565b5f82825260208201905092915050565b7f4e6f2064697370757465000000000000000000000000000000000000000000005f82015250565b5f6116d8600a83611694565b91506116e3826116a4565b602082019050919050565b5f6020820190508181035f830152611705816116cc565b9050919050565b7f556e617574686f72697a656400000000000000000000000000000000000000005f82015250565b5f611740600c83611694565b915061174b8261170c565b602082019050919050565b5f6020820190508181035f83015261176d81611734565b9050919050565b7f4e487b71000000000000000000000000000000000000000000000000000000005f52601160045260245ffd5b5f6117ab82611391565b91506117b683611391565b92508282019050808211156117ce576117cd611774565b5b92915050565b7f4469737075746520706572696f6420656e6465640000000000000000000000005f82015250565b5f611808601483611694565b9150611813826117d4565b602082019050919050565b5f6020820190508181035f830152611835816117fc565b9050919050565b7f496e76616c69642073656c6c65720000000000000000000000000000000000005f82015250565b5f611870600e83611694565b915061187b8261183c565b602082019050919050565b5f6020820190508181035f83015261189d81611864565b9050919050565b7f496e76616c696420616d6f756e740000000000000000000000000000000000005f82015250565b5f6118d8600e83611694565b91506118e3826118a4565b602082019050919050565b5f6020820190508181035f830152611905816118cc565b9050919050565b5f61191682611391565b91507fffffffffffffffffffffffffffffffffffffffffffffffffffffffffffffffff820361194857611947611774565b5b600182019050919050565b7f496e76616c6964206f72646572000000000000000000000000000000000000005f82015250565b5f611987600d83611694565b915061199282611953565b602082019050919050565b5f6020820190508181035f8301526119b48161197b565b9050919050565b7f416c726561647920736574746c656400000000000000000000000000000000005f82015250565b5f6119ef600f83611694565b91506119fa826119bb565b602082019050919050565b5f6020820190508181035f830152611a1c816119e3565b9050919050565b7f4f726465722064697370757465640000000000000000000000000000000000005f82015250565b5f611a57600e83611694565b9150611a6282611a23565b602082019050919050565b5f6020820190508181035f830152611a8481611a4b565b9050919050565b5f604082019050611a9e5f83018561155a565b611aab602083018461139a565b9392505050565b5f81519050611ac08161148e565b92915050565b5f60208284031215611adb57611ada611455565b5b5f611ae884828501611ab2565b91505092915050565b7f5472616e73666572206661696c656400000000000000000000000000000000005f82015250565b5f611b25600f83611694565b9150611b3082611af1565b602082019050919050565b5f6020820190508181035f830152611b5281611b19565b9050919050565b7f526566756e64206661696c6564000000000000000000000000000000000000005f82015250565b5f611b8d600d83611694565b9150611b9882611b59565b602082019050919050565b5f6020820190508181035f830152611bba81611b81565b905091905056fea26469706673582212206a7bb64e589fc69f77d53a91a6cfefa1eafe2cf0775795d2530630998c8ee40164736f6c634300081c0033","linkReferences":{}},"methodIdentifiers":{"DISPUTE_PERIOD()":"a5bbe22b","canRefund(uint256)":"fc8cc92b","completeEscrow(uint256)":"df3e0a1d","createEscrow(address,address,uint256)":"c3617650","escrowOrders(uint256)":"fa44b377","orderCount()":"2453ffa8","owner()":"8da5cb5b","paused()":"5c975abb","paymentToken()":"3013ce29","raiseDispute(uint256)":"a5c1674e","refundEscrow(uint256)":"356f9dfd","renounceOwnership()":"715018a6","resolveDispute(uint256,bool)":"34b25ee2","transferOwnership(address)":"f2fde38b"},"id":28}