{"abi":[{"type":"constructor","inputs":[{"name":"_paymentToken","type":"address","internalType":"contract IERC20"}],"stateMutability":"nonpayable"},{"type":"function","name":"ORDER_EXPIRY","inputs":[],"outputs":[{"name":"","type":"uint256","internalType":"uint256"}],"stateMutability":"view"},{"type":"function","name":"cancelOrder","inputs":[{"name":"_orderId","type":"uint256","internalType":"uint256"}],"outputs":[],"stateMutability":"nonpayable"},{"type":"function","name":"completeOrder","inputs":[{"name":"_orderId","type":"uint256","internalType":"uint256"}],"outputs":[],"stateMutability":"nonpayable"},{"type":"function","name":"createOrder","inputs":[{"name":"_productId","type":"uint256","internalType":"uint256"},{"name":"_amount","type":"uint256","internalType":"uint256"}],"outputs":[{"name":"","type":"uint256","internalType":"uint256"}],"stateMutability":"nonpayable"},{"type":"function","name":"createProduct","inputs":[{"name":"_name","type":"string","internalType":"string"},{"name":"_description","type":"string","internalType":"string"},{"name":"_pricePerUnit","type":"uint256","internalType":"uint256"},{"name":"_initialQuantity","type":"uint256","internalType":"uint256"}],"outputs":[{"name":"","type":"uint256","internalType":"uint256"}],"stateMutability":"nonpayable"},{"type":"function","name":"deactivateProduct","inputs":[{"name":"_productId","type":"uint256","internalType":"uint256"}],"outputs":[],"stateMutability":"nonpayable"},{"type":"function","name":"escrow","inputs":[],"outputs":[{"name":"","type":"address","internalType":"contract Escrow"}],"stateMutability":"view"},{"type":"function","name":"farmerProducts","inputs":[{"name":"","type":"address","internalType":"address"},{"name":"","type":"uint256","internalType":"uint256"}],"outputs":[{"name":"","type":"uint256","internalType":"uint256"}],"stateMutability":"view"},{"type":"function","name":"getActiveProducts","inputs":[],"outputs":[{"name":"","type":"tuple[]","internalType":"struct Marketplace.Product[]","components":[{"name":"id","type":"uint256","internalType":"uint256"},{"name":"name","type":"string","internalType":"string"},{"name":"description","type":"string","internalType":"string"},{"name":"pricePerUnit","type":"uint256","internalType":"uint256"},{"name":"availableQuantity","type":"uint256","internalType":"uint256"},{"name":"farmer","type":"address","internalType":"address"},{"name":"isActive","type":"bool","internalType":"bool"}]}],"stateMutability":"view"},{"type":"function","name":"getOrdersForProduct","inputs":[{"name":"_productId","type":"uint256","internalType":"uint256"}],"outputs":[{"name":"","type":"tuple[]","internalType":"struct Marketplace.Order[]","components":[{"name":"id","type":"uint256","internalType":"uint256"},{"name":"productId","type":"uint256","internalType":"uint256"},{"name":"farmer","type":"address","internalType":"address"},{"name":"buyer","type":"address","internalType":"address"},{"name":"amount","type":"uint256","internalType":"uint256"},{"name":"price","type":"uint256","internalType":"uint256"},{"name":"escrowId","type":"uint256","internalType":"uint256"},{"name":"isCompleted","type":"bool","internalType":"bool"},{"name":"isCancelled","type":"bool","internalType":"bool"},{"name":"createdAt","type":"uint256","internalType":"uint256"}]}],"stateMutability":"view"},{"type":"function","name":"getProduct","inputs":[{"name":"_productId","type":"uint256","internalType":"uint256"}],"outputs":[{"name":"","type":"tuple","internalType":"struct Marketplace.Product","components":[{"name":"id","type":"uint256","internalType":"uint256"},{"name":"name","type":"string","internalType":"string"},{"name":"description","type":"string","internalType":"string"},{"name":"pricePerUnit","type":"uint256","internalType":"uint256"},{"name":"availableQuantity","type":"uint256","internalType":"uint256"},{"name":"farmer","type":"address","internalType":"address"},{"name":"isActive","type":"bool","internalType":"bool"}]}],"stateMutability":"view"},{"type":"function","name":"orders","inputs":[{"name":"","type":"uint256","internalType":"uint256"}],"outputs":[{"name":"id","type":"uint256","internalType":"uint256"},{"name":"productId","type":"uint256","internalType":"uint256"},{"name":"farmer","type":"address","internalType":"address"},{"name":"buyer","type":"address","internalType":"address"},{"name":"amount","type":"uint256","internalType":"uint256"},{"name":"price","type":"uint256","internalType":"uint256"},{"name":"escrowId","type":"uint256","internalType":"uint256"},{"name":"isCompleted","type":"bool","internalType":"bool"},{"name":"isCancelled","type":"bool","internalType":"bool"},{"name":"createdAt","type":"uint256","internalType":"uint256"}],"stateMutability":"view"},{"type":"function","name":"owner","inputs":[],"outputs":[{"name":"","type":"address","internalType":"address"}],"stateMutability":"view"},{"type":"function","name":"productOrders","inputs":[{"name":"","type":"uint256","internalType":"uint256"},{"name":"","type":"uint256","internalType":"uint256"}],"outputs":[{"name":"","type":"uint256","internalType":"uint256"}],"stateMutability":"view"},{"type":"function","name":"products","inputs":[{"name":"","type":"uint256","internalType":"uint256"}],"outputs":[{"name":"id","type":"uint256","internalType":"uint256"},{"name":"name","type":"string","internalType":"string"},{"name":"description","type":"string","internalType":"string"},{"name":"pricePerUnit","type":"uint256","internalType":"uint256"},{"name":"availableQuantity","type":"uint256","internalType":"uint256"},{"name":"farmer","type":"address","internalType":"address"},{"name":"isActive","type":"bool","internalType":"bool"}],"stateMutability":"view"},{"type":"function","name":"renounceOwnership","inputs":[],"outputs":[],"stateMutability":"nonpayable"},{"type":"function","name":"transferOwnership","inputs":[{"name":"newOwner","type":"address","internalType":"address"}],"outputs":[],"stateMutability":"nonpayable"},{"type":"function","name":"updateProduct","inputs":[{"name":"_productId","type":"uint256","internalType":"uint256"},{"name":"_name","type":"string","internalType":"string"},{"name":"_description","type":"string","internalType":"string"},{"name":"_pricePerUnit","type":"uint256","internalType":"uint256"},{"name":"_availableQuantity","type":"uint256","internalType":"uint256"}],"outputs":[],"stateMutability":"nonpayable"},{"type":"event","name":"OrderCancelled","inputs":[{"name":"id","type":"uint256","indexed":false,"internalType":"uint256"}],"anonymous":false},{"type":"event","name":"OrderCompleted","inputs":[{"name":"id","type":"uint256","indexed":false,"internalType":"uint256"}],"anonymous":false},{"type":"event","name":"OrderCreated","inputs":[{"name":"id","type":"uint256","indexed":false,"internalType":"uint256"},{"name":"escrowId","type":"uint256","indexed":false,"internalType":"uint256"},{"name":"farmer","type":"address","indexed":false,"internalType":"address"},{"name":"buyer","type":"address","indexed":false,"internalType":"address"}],"anonymous":false},{"type":"event","name":"OwnershipTransferred","inputs":[{"name":"previousOwner","type":"address","indexed":true,"internalType":"address"},{"name":"newOwner","type":"address","indexed":true,"internalType":"address"}],"anonymous":false},{"type":"event","name":"ProductCreated","inputs":[{"name":"productId","type":"uint256","indexed":true,"internalType":"uint256"},{"name":"farmer","type":"address","indexed":true,"internalType":"address"}],"anonymous":false},{"type":"error","name":"OwnableInvalidOwner","inputs":[{"name":"owner","type":"address","internalType":"address"}]},{"type":"error","name":"OwnableUnauthorizedAccount","inputs":[{"name":"account","type":"address","internalType":"address"}]},{"type":"error","name":"ReentrancyGuardReentrantCall","inputs":[]}],"bytecode":{"object":"0x60a060405234801561000f575f5ffd5b5060405161530d38038061530d83398181016040528101906100319190610262565b335f73ffffffffffffffffffffffffffffffffffffffff168173ffffffffffffffffffffffffffffffffffffffff16036100a2575f6040517f1e4fbdf7000000000000000000000000000000000000000000000000000000008152600401610099919061029c565b60405180910390fd5b6100b18161012560201b60201c565b506001808190555080306040516100c7906101e6565b6100d2929190610310565b604051809103905ff0801580156100eb573d5f5f3e3d5ffd5b5073ffffffffffffffffffffffffffffffffffffffff1660808173ffffffffffffffffffffffffffffffffffffffff168152505050610337565b5f5f5f9054906101000a900473ffffffffffffffffffffffffffffffffffffffff169050815f5f6101000a81548173ffffffffffffffffffffffffffffffffffffffff021916908373ffffffffffffffffffffffffffffffffffffffff1602179055508173ffffffffffffffffffffffffffffffffffffffff168173ffffffffffffffffffffffffffffffffffffffff167f8be0079c531659141344cd1fd0a4f28419497f9722a3daafe3b4186f6b6457e060405160405180910390a35050565b61208d8061328083390190565b5f5ffd5b5f73ffffffffffffffffffffffffffffffffffffffff82169050919050565b5f610220826101f7565b9050919050565b5f61023182610216565b9050919050565b61024181610227565b811461024b575f5ffd5b50565b5f8151905061025c81610238565b92915050565b5f60208284031215610277576102766101f3565b5b5f6102848482850161024e565b91505092915050565b61029681610216565b82525050565b5f6020820190506102af5f83018461028d565b92915050565b5f819050919050565b5f6102d86102d36102ce846101f7565b6102b5565b6101f7565b9050919050565b5f6102e9826102be565b9050919050565b5f6102fa826102df565b9050919050565b61030a816102f0565b82525050565b5f6040820190506103235f830185610301565b610330602083018461028d565b9392505050565b608051612f1c6103645f395f8181610418015281816107e4015281816110a501526116650152612f1c5ff3fe608060405234801561000f575f5ffd5b5060043610610114575f3560e01c8063b6adaaff116100a0578063f2fde38b1161006f578063f2fde38b14610301578063f94eb1821461031d578063fd65db5f14610339578063fd77e5de14610369578063fece87721461038557610114565b8063b6adaaff14610279578063b9db15b414610295578063ca0f46c0146102c5578063e2fdcc17146102e357610114565b80637acc0b20116100e75780637acc0b201461019e5780638da5cb5b146101d45780639008bae8146101f257806390d16cba14610210578063a85c38ef1461024057610114565b8063514fcac71461011857806360abce5214610134578063715018a61461016457806379109baa1461016e575b5f5ffd5b610132600480360381019061012d9190611c66565b6103b5565b005b61014e60048036038101906101499190611c66565b6104fc565b60405161015b9190611e6c565b60405180910390f35b61016c610706565b005b61018860048036038101906101839190611e8c565b610719565b6040516101959190611ed9565b60405180910390f35b6101b860048036038101906101b39190611c66565b610b40565b6040516101cb9796959493929190611f80565b60405180910390f35b6101dc610cb6565b6040516101e99190611ffb565b60405180910390f35b6101fa610cdd565b6040516102079190611ed9565b60405180910390f35b61022a60048036038101906102259190612140565b610ce4565b6040516102379190611ed9565b60405180910390f35b61025a60048036038101906102559190611c66565b610f9b565b6040516102709a999897969594939291906121dc565b60405180910390f35b610293600480360381019061028e9190611c66565b611042565b005b6102af60048036038101906102aa9190611c66565b611188565b6040516102bc919061235e565b60405180910390f35b6102cd611360565b6040516102da91906124d9565b60405180910390f35b6102eb611663565b6040516102f89190612554565b60405180910390f35b61031b60048036038101906103169190612597565b611687565b005b610337600480360381019061033291906125c2565b61170b565b005b610353600480360381019061034e9190611e8c565b61184f565b6040516103609190611ed9565b60405180910390f35b610383600480360381019061037e9190611c66565b61187a565b005b61039f600480360381019061039a9190612671565b611990565b6040516103ac9190611ed9565b60405180910390f35b6103bd6119bb565b5f60055f8381526020019081526020015f2090505f815f015403610416576040517f08c379a000000000000000000000000000000000000000000000000000000000815260040161040d906126f9565b60405180910390fd5b7f000000000000000000000000000000000000000000000000000000000000000073ffffffffffffffffffffffffffffffffffffffff1663356f9dfd836040518263ffffffff1660e01b815260040161046f9190611ed9565b5f604051808303815f87803b158015610486575f5ffd5b505af1158015610498573d5f5f3e3d5ffd5b5050505060018160070160016101000a81548160ff0219169083151502179055507f61b9399f2f0f32ca39ce8d7be32caed5ec22fe07a6daba3a467ed479ec606582826040516104e89190611ed9565b60405180910390a1506104f9611a01565b50565b60605f60075f8481526020019081526020015f2090505f818054905067ffffffffffffffff8111156105315761053061201c565b5b60405190808252806020026020018201604052801561056a57816020015b610557611b59565b81526020019060019003908161054f5790505b5090505f5f90505b82805490508110156106fb5760055f84838154811061059457610593612717565b5b905f5260205f20015481526020019081526020015f20604051806101400160405290815f820154815260200160018201548152602001600282015f9054906101000a900473ffffffffffffffffffffffffffffffffffffffff1673ffffffffffffffffffffffffffffffffffffffff1673ffffffffffffffffffffffffffffffffffffffff168152602001600382015f9054906101000a900473ffffffffffffffffffffffffffffffffffffffff1673ffffffffffffffffffffffffffffffffffffffff1673ffffffffffffffffffffffffffffffffffffffff168152602001600482015481526020016005820154815260200160068201548152602001600782015f9054906101000a900460ff161515151581526020016007820160019054906101000a900460ff161515151581526020016008820154815250508282815181106106e3576106e2612717565b5b60200260200101819052508080600101915050610572565b508092505050919050565b61070e611a0a565b6107175f611a91565b565b5f6107226119bb565b5f60045f8581526020019081526020015f2090508060050160149054906101000a900460ff16610787576040517f08c379a000000000000000000000000000000000000000000000000000000000815260040161077e9061278e565b60405180910390fd5b82816004015410156107ce576040517f08c379a00000000000000000000000000000000000000000000000000000000081526004016107c5906127f6565b60405180910390fd5b5f8160030154846107df9190612841565b90505f7f000000000000000000000000000000000000000000000000000000000000000073ffffffffffffffffffffffffffffffffffffffff1663c3617650846005015f9054906101000a900473ffffffffffffffffffffffffffffffffffffffff1633856040518463ffffffff1660e01b815260040161086293929190612882565b6020604051808303815f875af115801561087e573d5f5f3e3d5ffd5b505050506040513d601f19601f820116820180604052508101906108a291906128cb565b905060025f8154809291906108b6906128f6565b91905055506040518061014001604052806002548152602001878152602001846005015f9054906101000a900473ffffffffffffffffffffffffffffffffffffffff1673ffffffffffffffffffffffffffffffffffffffff1681526020013373ffffffffffffffffffffffffffffffffffffffff168152602001868152602001846003015481526020018281526020015f151581526020015f151581526020014281525060055f60025481526020019081526020015f205f820151815f0155602082015181600101556040820151816002015f6101000a81548173ffffffffffffffffffffffffffffffffffffffff021916908373ffffffffffffffffffffffffffffffffffffffff1602179055506060820151816003015f6101000a81548173ffffffffffffffffffffffffffffffffffffffff021916908373ffffffffffffffffffffffffffffffffffffffff1602179055506080820151816004015560a0820151816005015560c0820151816006015560e0820151816007015f6101000a81548160ff0219169083151502179055506101008201518160070160016101000a81548160ff021916908315150217905550610120820151816008015590505084836004015f828254610a8a919061293d565b9250508190555060075f8781526020019081526020015f20600254908060018154018082558091505060019003905f5260205f20015f90919091909150557f5c347d9f41a25f70cd6e721469f46ccbc3db61b1c1b70591137bede5cf3eb11160025482856005015f9054906101000a900473ffffffffffffffffffffffffffffffffffffffff1633604051610b229493929190612970565b60405180910390a16002549350505050610b3a611a01565b92915050565b6004602052805f5260405f205f91509050805f015490806001018054610b65906129e0565b80601f0160208091040260200160405190810160405280929190818152602001828054610b91906129e0565b8015610bdc5780601f10610bb357610100808354040283529160200191610bdc565b820191905f5260205f20905b815481529060010190602001808311610bbf57829003601f168201915b505050505090806002018054610bf1906129e0565b80601f0160208091040260200160405190810160405280929190818152602001828054610c1d906129e0565b8015610c685780601f10610c3f57610100808354040283529160200191610c68565b820191905f5260205f20905b815481529060010190602001808311610c4b57829003601f168201915b505050505090806003015490806004015490806005015f9054906101000a900473ffffffffffffffffffffffffffffffffffffffff16908060050160149054906101000a900460ff16905087565b5f5f5f9054906101000a900473ffffffffffffffffffffffffffffffffffffffff16905090565b62278d0081565b5f610ced6119bb565b5f855111610d30576040517f08c379a0000000000000000000000000000000000000000000000000000000008152600401610d2790612a5a565b60405180910390fd5b5f8311610d72576040517f08c379a0000000000000000000000000000000000000000000000000000000008152600401610d6990612ac2565b60405180910390fd5b5f8211610db4576040517f08c379a0000000000000000000000000000000000000000000000000000000008152600401610dab90612b2a565b60405180910390fd5b60035f815480929190610dc6906128f6565b91905055506040518060e0016040528060035481526020018681526020018581526020018481526020018381526020013373ffffffffffffffffffffffffffffffffffffffff1681526020016001151581525060045f60035481526020019081526020015f205f820151815f01556020820151816001019081610e499190612cdf565b506040820151816002019081610e5f9190612cdf565b50606082015181600301556080820151816004015560a0820151816005015f6101000a81548173ffffffffffffffffffffffffffffffffffffffff021916908373ffffffffffffffffffffffffffffffffffffffff16021790555060c08201518160050160146101000a81548160ff02191690831515021790555090505060065f3373ffffffffffffffffffffffffffffffffffffffff1673ffffffffffffffffffffffffffffffffffffffff1681526020019081526020015f20600354908060018154018082558091505060019003905f5260205f20015f90919091909150553373ffffffffffffffffffffffffffffffffffffffff166003547fe8bb4e90e950f7b76a8c4e472b3b5e01d41c478f9eeaea36b4ba991f51133f9160405160405180910390a36003549050610f93611a01565b949350505050565b6005602052805f5260405f205f91509050805f015490806001015490806002015f9054906101000a900473ffffffffffffffffffffffffffffffffffffffff1690806003015f9054906101000a900473ffffffffffffffffffffffffffffffffffffffff1690806004015490806005015490806006015490806007015f9054906101000a900460ff16908060070160019054906101000a900460ff1690806008015490508a565b61104a6119bb565b5f60055f8381526020019081526020015f2090505f815f0154036110a3576040517f08c379a000000000000000000000000000000000000000000000000000000000815260040161109a906126f9565b60405180910390fd5b7f000000000000000000000000000000000000000000000000000000000000000073ffffffffffffffffffffffffffffffffffffffff1663df3e0a1d836040518263ffffffff1660e01b81526004016110fc9190611ed9565b5f604051808303815f87803b158015611113575f5ffd5b505af1158015611125573d5f5f3e3d5ffd5b505050506001816007015f6101000a81548160ff0219169083151502179055507f02a7d4d9472af7118644884b9a0ee443540c0027e938dd0aa35be8ecbe946c0a826040516111749190611ed9565b60405180910390a150611185611a01565b50565b611190611bd2565b60045f8381526020019081526020015f206040518060e00160405290815f82015481526020016001820180546111c5906129e0565b80601f01602080910402602001604051908101604052809291908181526020018280546111f1906129e0565b801561123c5780601f106112135761010080835404028352916020019161123c565b820191905f5260205f20905b81548152906001019060200180831161121f57829003601f168201915b50505050508152602001600282018054611255906129e0565b80601f0160208091040260200160405190810160405280929190818152602001828054611281906129e0565b80156112cc5780601f106112a3576101008083540402835291602001916112cc565b820191905f5260205f20905b8154815290600101906020018083116112af57829003601f168201915b505050505081526020016003820154815260200160048201548152602001600582015f9054906101000a900473ffffffffffffffffffffffffffffffffffffffff1673ffffffffffffffffffffffffffffffffffffffff1673ffffffffffffffffffffffffffffffffffffffff1681526020016005820160149054906101000a900460ff1615151515815250509050919050565b60605f5f90505f600190505b60035481116113be5760045f8281526020019081526020015f2060050160149054906101000a900460ff16156113ab5781806113a7906128f6565b9250505b80806113b6906128f6565b91505061136c565b505f8167ffffffffffffffff8111156113da576113d961201c565b5b60405190808252806020026020018201604052801561141357816020015b611400611bd2565b8152602001906001900390816113f85790505b5090505f5f90505f600190505b60035481116116595760045f8281526020019081526020015f2060050160149054906101000a900460ff16156116465760045f8281526020019081526020015f206040518060e00160405290815f8201548152602001600182018054611485906129e0565b80601f01602080910402602001604051908101604052809291908181526020018280546114b1906129e0565b80156114fc5780601f106114d3576101008083540402835291602001916114fc565b820191905f5260205f20905b8154815290600101906020018083116114df57829003601f168201915b50505050508152602001600282018054611515906129e0565b80601f0160208091040260200160405190810160405280929190818152602001828054611541906129e0565b801561158c5780601f106115635761010080835404028352916020019161158c565b820191905f5260205f20905b81548152906001019060200180831161156f57829003601f168201915b505050505081526020016003820154815260200160048201548152602001600582015f9054906101000a900473ffffffffffffffffffffffffffffffffffffffff1673ffffffffffffffffffffffffffffffffffffffff1673ffffffffffffffffffffffffffffffffffffffff1681526020016005820160149054906101000a900460ff16151515158152505083838151811061162c5761162b612717565b5b60200260200101819052508180611642906128f6565b9250505b8080611651906128f6565b915050611420565b5081935050505090565b7f000000000000000000000000000000000000000000000000000000000000000081565b61168f611a0a565b5f73ffffffffffffffffffffffffffffffffffffffff168173ffffffffffffffffffffffffffffffffffffffff16036116ff575f6040517f1e4fbdf70000000000000000000000000000000000000000000000000000000081526004016116f69190611ffb565b60405180910390fd5b61170881611a91565b50565b6117136119bb565b5f60045f8781526020019081526020015f2090503373ffffffffffffffffffffffffffffffffffffffff16816005015f9054906101000a900473ffffffffffffffffffffffffffffffffffffffff1673ffffffffffffffffffffffffffffffffffffffff16146117b8576040517f08c379a00000000000000000000000000000000000000000000000000000000081526004016117af90612df8565b60405180910390fd5b8060050160149054906101000a900460ff16611809576040517f08c379a000000000000000000000000000000000000000000000000000000000815260040161180090612e60565b60405180910390fd5b8481600101908161181a9190612cdf565b508381600201908161182c9190612cdf565b5082816003018190555081816004018190555050611848611a01565b5050505050565b6007602052815f5260405f208181548110611868575f80fd5b905f5260205f20015f91509150505481565b5f60045f8381526020019081526020015f2090503373ffffffffffffffffffffffffffffffffffffffff16816005015f9054906101000a900473ffffffffffffffffffffffffffffffffffffffff1673ffffffffffffffffffffffffffffffffffffffff161461191f576040517f08c379a000000000000000000000000000000000000000000000000000000000815260040161191690612df8565b60405180910390fd5b8060050160149054906101000a900460ff16611970576040517f08c379a000000000000000000000000000000000000000000000000000000000815260040161196790612ec8565b60405180910390fd5b5f8160050160146101000a81548160ff0219169083151502179055505050565b6006602052815f5260405f2081815481106119a9575f80fd5b905f5260205f20015f91509150505481565b6002600154036119f7576040517f3ee5aeb500000000000000000000000000000000000000000000000000000000815260040160405180910390fd5b6002600181905550565b60018081905550565b611a12611b52565b73ffffffffffffffffffffffffffffffffffffffff16611a30610cb6565b73ffffffffffffffffffffffffffffffffffffffff1614611a8f57611a53611b52565b6040517f118cdaa7000000000000000000000000000000000000000000000000000000008152600401611a869190611ffb565b60405180910390fd5b565b5f5f5f9054906101000a900473ffffffffffffffffffffffffffffffffffffffff169050815f5f6101000a81548173ffffffffffffffffffffffffffffffffffffffff021916908373ffffffffffffffffffffffffffffffffffffffff1602179055508173ffffffffffffffffffffffffffffffffffffffff168173ffffffffffffffffffffffffffffffffffffffff167f8be0079c531659141344cd1fd0a4f28419497f9722a3daafe3b4186f6b6457e060405160405180910390a35050565b5f33905090565b6040518061014001604052805f81526020015f81526020015f73ffffffffffffffffffffffffffffffffffffffff1681526020015f73ffffffffffffffffffffffffffffffffffffffff1681526020015f81526020015f81526020015f81526020015f151581526020015f151581526020015f81525090565b6040518060e001604052805f815260200160608152602001606081526020015f81526020015f81526020015f73ffffffffffffffffffffffffffffffffffffffff1681526020015f151581525090565b5f604051905090565b5f5ffd5b5f5ffd5b5f819050919050565b611c4581611c33565b8114611c4f575f5ffd5b50565b5f81359050611c6081611c3c565b92915050565b5f60208284031215611c7b57611c7a611c2b565b5b5f611c8884828501611c52565b91505092915050565b5f81519050919050565b5f82825260208201905092915050565b5f819050602082019050919050565b611cc381611c33565b82525050565b5f73ffffffffffffffffffffffffffffffffffffffff82169050919050565b5f611cf282611cc9565b9050919050565b611d0281611ce8565b82525050565b5f8115159050919050565b611d1c81611d08565b82525050565b61014082015f820151611d375f850182611cba565b506020820151611d4a6020850182611cba565b506040820151611d5d6040850182611cf9565b506060820151611d706060850182611cf9565b506080820151611d836080850182611cba565b5060a0820151611d9660a0850182611cba565b5060c0820151611da960c0850182611cba565b5060e0820151611dbc60e0850182611d13565b50610100820151611dd1610100850182611d13565b50610120820151611de6610120850182611cba565b50505050565b5f611df78383611d22565b6101408301905092915050565b5f602082019050919050565b5f611e1a82611c91565b611e248185611c9b565b9350611e2f83611cab565b805f5b83811015611e5f578151611e468882611dec565b9750611e5183611e04565b925050600181019050611e32565b5085935050505092915050565b5f6020820190508181035f830152611e848184611e10565b905092915050565b5f5f60408385031215611ea257611ea1611c2b565b5b5f611eaf85828601611c52565b9250506020611ec085828601611c52565b9150509250929050565b611ed381611c33565b82525050565b5f602082019050611eec5f830184611eca565b92915050565b5f81519050919050565b5f82825260208201905092915050565b8281835e5f83830152505050565b5f601f19601f8301169050919050565b5f611f3482611ef2565b611f3e8185611efc565b9350611f4e818560208601611f0c565b611f5781611f1a565b840191505092915050565b611f6b81611ce8565b82525050565b611f7a81611d08565b82525050565b5f60e082019050611f935f83018a611eca565b8181036020830152611fa58189611f2a565b90508181036040830152611fb98188611f2a565b9050611fc86060830187611eca565b611fd56080830186611eca565b611fe260a0830185611f62565b611fef60c0830184611f71565b98975050505050505050565b5f60208201905061200e5f830184611f62565b92915050565b5f5ffd5b5f5ffd5b7f4e487b71000000000000000000000000000000000000000000000000000000005f52604160045260245ffd5b61205282611f1a565b810181811067ffffffffffffffff821117156120715761207061201c565b5b80604052505050565b5f612083611c22565b905061208f8282612049565b919050565b5f67ffffffffffffffff8211156120ae576120ad61201c565b5b6120b782611f1a565b9050602081019050919050565b828183375f83830152505050565b5f6120e46120df84612094565b61207a565b905082815260208101848484011115612100576120ff612018565b5b61210b8482856120c4565b509392505050565b5f82601f83011261212757612126612014565b5b81356121378482602086016120d2565b91505092915050565b5f5f5f5f6080858703121561215857612157611c2b565b5b5f85013567ffffffffffffffff81111561217557612174611c2f565b5b61218187828801612113565b945050602085013567ffffffffffffffff8111156121a2576121a1611c2f565b5b6121ae87828801612113565b93505060406121bf87828801611c52565b92505060606121d087828801611c52565b91505092959194509250565b5f610140820190506121f05f83018d611eca565b6121fd602083018c611eca565b61220a604083018b611f62565b612217606083018a611f62565b6122246080830189611eca565b61223160a0830188611eca565b61223e60c0830187611eca565b61224b60e0830186611f71565b612259610100830185611f71565b612267610120830184611eca565b9b9a5050505050505050505050565b5f82825260208201905092915050565b5f61229082611ef2565b61229a8185612276565b93506122aa818560208601611f0c565b6122b381611f1a565b840191505092915050565b5f60e083015f8301516122d35f860182611cba565b50602083015184820360208601526122eb8282612286565b915050604083015184820360408601526123058282612286565b915050606083015161231a6060860182611cba565b50608083015161232d6080860182611cba565b5060a083015161234060a0860182611cf9565b5060c083015161235360c0860182611d13565b508091505092915050565b5f6020820190508181035f83015261237681846122be565b905092915050565b5f81519050919050565b5f82825260208201905092915050565b5f819050602082019050919050565b5f60e083015f8301516123bc5f860182611cba565b50602083015184820360208601526123d48282612286565b915050604083015184820360408601526123ee8282612286565b91505060608301516124036060860182611cba565b5060808301516124166080860182611cba565b5060a083015161242960a0860182611cf9565b5060c083015161243c60c0860182611d13565b508091505092915050565b5f61245283836123a7565b905092915050565b5f602082019050919050565b5f6124708261237e565b61247a8185612388565b93508360208202850161248c85612398565b805f5b858110156124c757848403895281516124a88582612447565b94506124b38361245a565b925060208a0199505060018101905061248f565b50829750879550505050505092915050565b5f6020820190508181035f8301526124f18184612466565b905092915050565b5f819050919050565b5f61251c61251761251284611cc9565b6124f9565b611cc9565b9050919050565b5f61252d82612502565b9050919050565b5f61253e82612523565b9050919050565b61254e81612534565b82525050565b5f6020820190506125675f830184612545565b92915050565b61257681611ce8565b8114612580575f5ffd5b50565b5f813590506125918161256d565b92915050565b5f602082840312156125ac576125ab611c2b565b5b5f6125b984828501612583565b91505092915050565b5f5f5f5f5f60a086880312156125db576125da611c2b565b5b5f6125e888828901611c52565b955050602086013567ffffffffffffffff81111561260957612608611c2f565b5b61261588828901612113565b945050604086013567ffffffffffffffff81111561263657612635611c2f565b5b61264288828901612113565b935050606061265388828901611c52565b925050608061266488828901611c52565b9150509295509295909350565b5f5f6040838503121561268757612686611c2b565b5b5f61269485828601612583565b92505060206126a585828601611c52565b9150509250929050565b7f496e76616c6964206f72646572000000000000000000000000000000000000005f82015250565b5f6126e3600d83611efc565b91506126ee826126af565b602082019050919050565b5f6020820190508181035f830152612710816126d7565b9050919050565b7f4e487b71000000000000000000000000000000000000000000000000000000005f52603260045260245ffd5b7f50726f6475637420756e617661696c61626c65000000000000000000000000005f82015250565b5f612778601383611efc565b915061278382612744565b602082019050919050565b5f6020820190508181035f8301526127a58161276c565b9050919050565b7f496e73756666696369656e742073746f636b00000000000000000000000000005f82015250565b5f6127e0601283611efc565b91506127eb826127ac565b602082019050919050565b5f6020820190508181035f83015261280d816127d4565b9050919050565b7f4e487b71000000000000000000000000000000000000000000000000000000005f52601160045260245ffd5b5f61284b82611c33565b915061285683611c33565b925082820261286481611c33565b9150828204841483151761287b5761287a612814565b5b5092915050565b5f6060820190506128955f830186611f62565b6128a26020830185611f62565b6128af6040830184611eca565b949350505050565b5f815190506128c581611c3c565b92915050565b5f602082840312156128e0576128df611c2b565b5b5f6128ed848285016128b7565b91505092915050565b5f61290082611c33565b91507fffffffffffffffffffffffffffffffffffffffffffffffffffffffffffffffff820361293257612931612814565b5b600182019050919050565b5f61294782611c33565b915061295283611c33565b925082820390508181111561296a57612969612814565b5b92915050565b5f6080820190506129835f830187611eca565b6129906020830186611eca565b61299d6040830185611f62565b6129aa6060830184611f62565b95945050505050565b7f4e487b71000000000000000000000000000000000000000000000000000000005f52602260045260245ffd5b5f60028204905060018216806129f757607f821691505b602082108103612a0a57612a096129b3565b5b50919050565b7f4e616d65207265717569726564000000000000000000000000000000000000005f82015250565b5f612a44600d83611efc565b9150612a4f82612a10565b602082019050919050565b5f6020820190508181035f830152612a7181612a38565b9050919050565b7f5072696365206d75737420626520706f736974697665000000000000000000005f82015250565b5f612aac601683611efc565b9150612ab782612a78565b602082019050919050565b5f6020820190508181035f830152612ad981612aa0565b9050919050565b7f5175616e74697479206d75737420626520706f736974697665000000000000005f82015250565b5f612b14601983611efc565b9150612b1f82612ae0565b602082019050919050565b5f6020820190508181035f830152612b4181612b08565b9050919050565b5f819050815f5260205f209050919050565b5f6020601f8301049050919050565b5f82821b905092915050565b5f60088302612ba47fffffffffffffffffffffffffffffffffffffffffffffffffffffffffffffffff82612b69565b612bae8683612b69565b95508019841693508086168417925050509392505050565b5f612be0612bdb612bd684611c33565b6124f9565b611c33565b9050919050565b5f819050919050565b612bf983612bc6565b612c0d612c0582612be7565b848454612b75565b825550505050565b5f5f905090565b612c24612c15565b612c2f818484612bf0565b505050565b5b81811015612c5257612c475f82612c1c565b600181019050612c35565b5050565b601f821115612c9757612c6881612b48565b612c7184612b5a565b81016020851015612c80578190505b612c94612c8c85612b5a565b830182612c34565b50505b505050565b5f82821c905092915050565b5f612cb75f1984600802612c9c565b1980831691505092915050565b5f612ccf8383612ca8565b9150826002028217905092915050565b612ce882611ef2565b67ffffffffffffffff811115612d0157612d0061201c565b5b612d0b82546129e0565b612d16828285612c56565b5f60209050601f831160018114612d47575f8415612d35578287015190505b612d3f8582612cc4565b865550612da6565b601f198416612d5586612b48565b5f5b82811015612d7c57848901518255600182019150602085019450602081019050612d57565b86831015612d995784890151612d95601f891682612ca8565b8355505b6001600288020188555050505b505050505050565b7f4f6e6c792070726f64756374206f776e657200000000000000000000000000005f82015250565b5f612de2601283611efc565b9150612ded82612dae565b602082019050919050565b5f6020820190508181035f830152612e0f81612dd6565b9050919050565b7f50726f6475637420696e616374697665000000000000000000000000000000005f82015250565b5f612e4a601083611efc565b9150612e5582612e16565b602082019050919050565b5f6020820190508181035f830152612e7781612e3e565b9050919050565b7f416c726561647920696e616374697665000000000000000000000000000000005f82015250565b5f612eb2601083611efc565b9150612ebd82612e7e565b602082019050919050565b5f6020820190508181035f830152612edf81612ea6565b905091905056fea2646970667358221220976aaecf978b75fdee61f422db49313b49c849b18931e08a48e5a2556480379264736f6c634300081c003360a060405234801561000f575f5ffd5b5060405161208d38038061208d8339818101604052810190610031919061032a565b805f73ffffffffffffffffffffffffffffffffffffffff168173ffffffffffffffffffffffffffffffffffffffff16036100a2575f6040517f1e4fbdf70000000000000000000000000000000000000000000000000000000081526004016100999190610377565b60405180910390fd5b6100b1816101d060201b60201c565b50600180819055505f73ffffffffffffffffffffffffffffffffffffffff168273ffffffffffffffffffffffffffffffffffffffff1603610127576040517f08c379a000000000000000000000000000000000000000000000000000000000815260040161011e906103ea565b60405180910390fd5b5f73ffffffffffffffffffffffffffffffffffffffff168173ffffffffffffffffffffffffffffffffffffffff1603610195576040517f08c379a000000000000000000000000000000000000000000000000000000000815260040161018c90610452565b60405180910390fd5b8173ffffffffffffffffffffffffffffffffffffffff1660808173ffffffffffffffffffffffffffffffffffffffff16815250505050610470565b5f5f5f9054906101000a900473ffffffffffffffffffffffffffffffffffffffff169050815f5f6101000a81548173ffffffffffffffffffffffffffffffffffffffff021916908373ffffffffffffffffffffffffffffffffffffffff1602179055508173ffffffffffffffffffffffffffffffffffffffff168173ffffffffffffffffffffffffffffffffffffffff167f8be0079c531659141344cd1fd0a4f28419497f9722a3daafe3b4186f6b6457e060405160405180910390a35050565b5f5ffd5b5f73ffffffffffffffffffffffffffffffffffffffff82169050919050565b5f6102be82610295565b9050919050565b5f6102cf826102b4565b9050919050565b6102df816102c5565b81146102e9575f5ffd5b50565b5f815190506102fa816102d6565b92915050565b610309816102b4565b8114610313575f5ffd5b50565b5f8151905061032481610300565b92915050565b5f5f604083850312156103405761033f610291565b5b5f61034d858286016102ec565b925050602061035e85828601610316565b9150509250929050565b610371816102b4565b82525050565b5f60208201905061038a5f830184610368565b92915050565b5f82825260208201905092915050565b7f496e76616c696420746f6b656e000000000000000000000000000000000000005f82015250565b5f6103d4600d83610390565b91506103df826103a0565b602082019050919050565b5f6020820190508181035f830152610401816103c8565b9050919050565b7f496e76616c6964206f776e6572000000000000000000000000000000000000005f82015250565b5f61043c600d83610390565b915061044782610408565b602082019050919050565b5f6020820190508181035f83015261046981610430565b9050919050565b608051611bf76104965f395f81816102b601528181610df901526110680152611bf75ff3fe608060405234801561000f575f5ffd5b50600436106100e8575f3560e01c8063a5bbe22b1161008a578063df3e0a1d11610064578063df3e0a1d14610210578063f2fde38b1461022c578063fa44b37714610248578063fc8cc92b1461027e576100e8565b8063a5bbe22b146101a6578063a5c1674e146101c4578063c3617650146101e0576100e8565b8063356f9dfd116100c6578063356f9dfd146101445780635c975abb14610160578063715018a61461017e5780638da5cb5b14610188576100e8565b80632453ffa8146100ec5780633013ce291461010a57806334b25ee214610128575b5f5ffd5b6100f46102ae565b60405161010191906113a9565b60405180910390f35b6101126102b4565b60405161011f919061143c565b60405180910390f35b610142600480360381019061013d91906114b8565b6102d8565b005b61015e600480360381019061015991906114f6565b6103c2565b005b6101686103ee565b6040516101759190611530565b60405180910390f35b610186610403565b005b610190610416565b60405161019d9190611569565b60405180910390f35b6101ae61043d565b6040516101bb91906113a9565b60405180910390f35b6101de60048036038101906101d991906114f6565b610444565b005b6101fa60048036038101906101f591906115ac565b6105ce565b60405161020791906113a9565b60405180910390f35b61022a600480360381019061022591906114f6565b610891565b005b610246600480360381019061024191906115fc565b6108bd565b005b610262600480360381019061025d91906114f6565b610941565b6040516102759796959493929190611627565b60405180910390f35b610298600480360381019061029391906114f6565b6109e2565b6040516102a59190611530565b60405180910390f35b60045481565b7f000000000000000000000000000000000000000000000000000000000000000081565b6102e0610b82565b5f60035f8481526020019081526020015f209050806005015f9054906101000a900460ff16610344576040517f08c379a000000000000000000000000000000000000000000000000000000000815260040161033b906116ee565b60405180910390fd5b5f816005015f6101000a81548160ff021916908315150217905550610367610c09565b811561037b5761037683610c6a565b610385565b61038483610f29565b5b827fb3417abc93448b7060e27a626f45e14f179f6d375b8f2169677247f598ae4332836040516103b59190611530565b60405180910390a2505050565b6103ca610b82565b6103d2611197565b6103da6111dd565b6103e381610f29565b6103eb61121e565b50565b5f60025f9054906101000a900460ff16905090565b61040b610b82565b6104145f611227565b565b5f5f5f9054906101000a900473ffffffffffffffffffffffffffffffffffffffff16905090565b62093a8081565b5f60035f8381526020019081526020015f209050805f015f9054906101000a900473ffffffffffffffffffffffffffffffffffffffff1673ffffffffffffffffffffffffffffffffffffffff163373ffffffffffffffffffffffffffffffffffffffff1614806104e657506104b7610416565b73ffffffffffffffffffffffffffffffffffffffff163373ffffffffffffffffffffffffffffffffffffffff16145b610525576040517f08c379a000000000000000000000000000000000000000000000000000000000815260040161051c90611756565b60405180910390fd5b62093a80816004015461053891906117a1565b4210610579576040517f08c379a00000000000000000000000000000000000000000000000000000000081526004016105709061181e565b60405180910390fd5b6001816005015f6101000a81548160ff02191690831515021790555061059d6112e8565b817f7ce7831fed9a800b1aa5e7ca21034bf7b95efc31a196459012cf8b8eb42b7dac60405160405180910390a25050565b5f6105d7610b82565b6105df6111dd565b5f73ffffffffffffffffffffffffffffffffffffffff168473ffffffffffffffffffffffffffffffffffffffff160361064d576040517f08c379a000000000000000000000000000000000000000000000000000000000815260040161064490611886565b60405180910390fd5b5f821161068f576040517f08c379a0000000000000000000000000000000000000000000000000000000008152600401610686906118ee565b60405180910390fd5b60045f8154809291906106a19061190c565b91905055506040518060e001604052808473ffffffffffffffffffffffffffffffffffffffff1681526020018573ffffffffffffffffffffffffffffffffffffffff1681526020018381526020015f151581526020015f151581526020014281526020015f151581525060035f60045481526020019081526020015f205f820151815f015f6101000a81548173ffffffffffffffffffffffffffffffffffffffff021916908373ffffffffffffffffffffffffffffffffffffffff1602179055506020820151816001015f6101000a81548173ffffffffffffffffffffffffffffffffffffffff021916908373ffffffffffffffffffffffffffffffffffffffff160217905550604082015181600201556060820151816003015f6101000a81548160ff02191690831515021790555060808201518160030160016101000a81548160ff02191690831515021790555060a0820151816004015560c0820151816005015f6101000a81548160ff0219169083151502179055509050508373ffffffffffffffffffffffffffffffffffffffff168373ffffffffffffffffffffffffffffffffffffffff166004547f9405ad0a6208539879349284d71265479b1623846f70303da1f9890d6e8c10a78560405161087d91906113a9565b60405180910390a460045490509392505050565b610899610b82565b6108a1611197565b6108a96111dd565b6108b281610c6a565b6108ba61121e565b50565b6108c5610b82565b5f73ffffffffffffffffffffffffffffffffffffffff168173ffffffffffffffffffffffffffffffffffffffff1603610935575f6040517f1e4fbdf700000000000000000000000000000000000000000000000000000000815260040161092c9190611569565b60405180910390fd5b61093e81611227565b50565b6003602052805f5260405f205f91509050805f015f9054906101000a900473ffffffffffffffffffffffffffffffffffffffff1690806001015f9054906101000a900473ffffffffffffffffffffffffffffffffffffffff1690806002015490806003015f9054906101000a900460ff16908060030160019054906101000a900460ff1690806004015490806005015f9054906101000a900460ff16905087565b5f5f60035f8481526020019081526020015f206040518060e00160405290815f82015f9054906101000a900473ffffffffffffffffffffffffffffffffffffffff1673ffffffffffffffffffffffffffffffffffffffff1673ffffffffffffffffffffffffffffffffffffffff168152602001600182015f9054906101000a900473ffffffffffffffffffffffffffffffffffffffff1673ffffffffffffffffffffffffffffffffffffffff1673ffffffffffffffffffffffffffffffffffffffff16815260200160028201548152602001600382015f9054906101000a900460ff161515151581526020016003820160019054906101000a900460ff1615151515815260200160048201548152602001600582015f9054906101000a900460ff16151515158152505090505f73ffffffffffffffffffffffffffffffffffffffff16815f015173ffffffffffffffffffffffffffffffffffffffff1614158015610b4f57508060600151155b8015610b5d57508060800151155b8015610b7a575062093a808160a00151610b7791906117a1565b42115b915050919050565b610b8a61134a565b73ffffffffffffffffffffffffffffffffffffffff16610ba8610416565b73ffffffffffffffffffffffffffffffffffffffff1614610c0757610bcb61134a565b6040517f118cdaa7000000000000000000000000000000000000000000000000000000008152600401610bfe9190611569565b60405180910390fd5b565b610c11611351565b5f60025f6101000a81548160ff0219169083151502179055507f5db9ee0a495bf2e6ff9c91a7834c1ba4fdd244a5e8aa4e537bd38aeae4b073aa610c5361134a565b604051610c609190611569565b60405180910390a1565b610c72610b82565b610c7a6111dd565b5f60035f8381526020019081526020015f2090505f73ffffffffffffffffffffffffffffffffffffffff16815f015f9054906101000a900473ffffffffffffffffffffffffffffffffffffffff1673ffffffffffffffffffffffffffffffffffffffff1603610d1e576040517f08c379a0000000000000000000000000000000000000000000000000000000008152600401610d159061199d565b60405180910390fd5b806003015f9054906101000a900460ff16158015610d4b57508060030160019054906101000a900460ff16155b610d8a576040517f08c379a0000000000000000000000000000000000000000000000000000000008152600401610d8190611a05565b60405180910390fd5b806005015f9054906101000a900460ff1615610ddb576040517f08c379a0000000000000000000000000000000000000000000000000000000008152600401610dd290611a6d565b60405180910390fd5b6001816003015f6101000a81548160ff0219169083151502179055507f000000000000000000000000000000000000000000000000000000000000000073ffffffffffffffffffffffffffffffffffffffff1663a9059cbb826001015f9054906101000a900473ffffffffffffffffffffffffffffffffffffffff1683600201546040518363ffffffff1660e01b8152600401610e79929190611a8b565b6020604051808303815f875af1158015610e95573d5f5f3e3d5ffd5b505050506040513d601f19601f82011682018060405250810190610eb99190611ac6565b610ef8576040517f08c379a0000000000000000000000000000000000000000000000000000000008152600401610eef90611b3b565b60405180910390fd5b817f9285bd636dda01bef18996aa38303bb742f6c67a6941646dddb17630cb492c2e60405160405180910390a25050565b610f31610b82565b610f396111dd565b5f60035f8381526020019081526020015f2090505f73ffffffffffffffffffffffffffffffffffffffff16815f015f9054906101000a900473ffffffffffffffffffffffffffffffffffffffff1673ffffffffffffffffffffffffffffffffffffffff1603610fdd576040517f08c379a0000000000000000000000000000000000000000000000000000000008152600401610fd49061199d565b60405180910390fd5b806003015f9054906101000a900460ff1615801561100a57508060030160019054906101000a900460ff16155b611049576040517f08c379a000000000000000000000000000000000000000000000000000000000815260040161104090611a05565b60405180910390fd5b60018160030160016101000a81548160ff0219169083151502179055507f000000000000000000000000000000000000000000000000000000000000000073ffffffffffffffffffffffffffffffffffffffff1663a9059cbb825f015f9054906101000a900473ffffffffffffffffffffffffffffffffffffffff1683600201546040518363ffffffff1660e01b81526004016110e7929190611a8b565b6020604051808303815f875af1158015611103573d5f5f3e3d5ffd5b505050506040513d601f19601f820116820180604052508101906111279190611ac6565b611166576040517f08c379a000000000000000000000000000000000000000000000000000000000815260040161115d90611ba3565b60405180910390fd5b817f2babb5cd458b6d41108d6d793a75e29ca524e7caa20e2da6c994462010920a7260405160405180910390a25050565b6002600154036111d3576040517f3ee5aeb500000000000000000000000000000000000000000000000000000000815260040160405180910390fd5b6002600181905550565b6111e56103ee565b1561121c576040517fd93c066500000000000000000000000000000000000000000000000000000000815260040160405180910390fd5b565b60018081905550565b5f5f5f9054906101000a900473ffffffffffffffffffffffffffffffffffffffff169050815f5f6101000a81548173ffffffffffffffffffffffffffffffffffffffff021916908373ffffffffffffffffffffffffffffffffffffffff1602179055508173ffffffffffffffffffffffffffffffffffffffff168173ffffffffffffffffffffffffffffffffffffffff167f8be0079c531659141344cd1fd0a4f28419497f9722a3daafe3b4186f6b6457e060405160405180910390a35050565b6112f06111dd565b600160025f6101000a81548160ff0219169083151502179055507f62e78cea01bee320cd4e420270b5ea74000d11b0c9f74754ebdbfc544b05a25861133361134a565b6040516113409190611569565b60405180910390a1565b5f33905090565b6113596103ee565b61138f576040517f8dfc202b00000000000000000000000000000000000000000000000000000000815260040160405180910390fd5b565b5f819050919050565b6113a381611391565b82525050565b5f6020820190506113bc5f83018461139a565b92915050565b5f73ffffffffffffffffffffffffffffffffffffffff82169050919050565b5f819050919050565b5f6114046113ff6113fa846113c2565b6113e1565b6113c2565b9050919050565b5f611415826113ea565b9050919050565b5f6114268261140b565b9050919050565b6114368161141c565b82525050565b5f60208201905061144f5f83018461142d565b92915050565b5f5ffd5b61146281611391565b811461146c575f5ffd5b50565b5f8135905061147d81611459565b92915050565b5f8115159050919050565b61149781611483565b81146114a1575f5ffd5b50565b5f813590506114b28161148e565b92915050565b5f5f604083850312156114ce576114cd611455565b5b5f6114db8582860161146f565b92505060206114ec858286016114a4565b9150509250929050565b5f6020828403121561150b5761150a611455565b5b5f6115188482850161146f565b91505092915050565b61152a81611483565b82525050565b5f6020820190506115435f830184611521565b92915050565b5f611553826113c2565b9050919050565b61156381611549565b82525050565b5f60208201905061157c5f83018461155a565b92915050565b61158b81611549565b8114611595575f5ffd5b50565b5f813590506115a681611582565b92915050565b5f5f5f606084860312156115c3576115c2611455565b5b5f6115d086828701611598565b93505060206115e186828701611598565b92505060406115f28682870161146f565b9150509250925092565b5f6020828403121561161157611610611455565b5b5f61161e84828501611598565b91505092915050565b5f60e08201905061163a5f83018a61155a565b611647602083018961155a565b611654604083018861139a565b6116616060830187611521565b61166e6080830186611521565b61167b60a083018561139a565b61168860c0830184611521565b98975050505050505050565b5f82825260208201905092915050565b7f4e6f2064697370757465000000000000000000000000000000000000000000005f82015250565b5f6116d8600a83611694565b91506116e3826116a4565b602082019050919050565b5f6020820190508181035f830152611705816116cc565b9050919050565b7f556e617574686f72697a656400000000000000000000000000000000000000005f82015250565b5f611740600c83611694565b915061174b8261170c565b602082019050919050565b5f6020820190508181035f83015261176d81611734565b9050919050565b7f4e487b71000000000000000000000000000000000000000000000000000000005f52601160045260245ffd5b5f6117ab82611391565b91506117b683611391565b92508282019050808211156117ce576117cd611774565b5b92915050565b7f4469737075746520706572696f6420656e6465640000000000000000000000005f82015250565b5f611808601483611694565b9150611813826117d4565b602082019050919050565b5f6020820190508181035f830152611835816117fc565b9050919050565b7f496e76616c69642073656c6c65720000000000000000000000000000000000005f82015250565b5f611870600e83611694565b915061187b8261183c565b602082019050919050565b5f6020820190508181035f83015261189d81611864565b9050919050565b7f496e76616c696420616d6f756e740000000000000000000000000000000000005f82015250565b5f6118d8600e83611694565b91506118e3826118a4565b602082019050919050565b5f6020820190508181035f830152611905816118cc565b9050919050565b5f61191682611391565b91507fffffffffffffffffffffffffffffffffffffffffffffffffffffffffffffffff820361194857611947611774565b5b600182019050919050565b7f496e76616c6964206f72646572000000000000000000000000000000000000005f82015250565b5f611987600d83611694565b915061199282611953565b602082019050919050565b5f6020820190508181035f8301526119b48161197b565b9050919050565b7f416c726561647920736574746c656400000000000000000000000000000000005f82015250565b5f6119ef600f83611694565b91506119fa826119bb565b602082019050919050565b5f6020820190508181035f830152611a1c816119e3565b9050919050565b7f4f726465722064697370757465640000000000000000000000000000000000005f82015250565b5f611a57600e83611694565b9150611a6282611a23565b602082019050919050565b5f6020820190508181035f830152611a8481611a4b565b9050919050565b5f604082019050611a9e5f83018561155a565b611aab602083018461139a565b9392505050565b5f81519050611ac08161148e565b92915050565b5f60208284031215611adb57611ada611455565b5b5f611ae884828501611ab2565b91505092915050565b7f5472616e73666572206661696c656400000000000000000000000000000000005f82015250565b5f611b25600f83611694565b9150611b3082611af1565b602082019050919050565b5f6020820190508181035f830152611b5281611b19565b9050919050565b7f526566756e64206661696c6564000000000000000000000000000000000000005f82015250565b5f611b8d600d83611694565b9150611b9882611b59565b602082019050919050565b5f6020820190508181035f830152611bba81611b81565b905091905056fea26469706673582212206a7bb64e589fc69f77d53a91a6cfefa1eafe2cf0775795d2530630998c8ee40164736f6c634300081c0033","linkReferences":{}},"methodIdentifiers":{"ORDER_EXPIRY()":"9008bae8","cancelOrder(uint256)":"514fcac7","completeOrder(uint256)":"b6adaaff","createOrder(uint256,uint256)":"79109baa","createProduct(string,string,uint256,uint256)":"90d16cba","deactivateProduct(uint256)":"fd77e5de","escrow()":"e2fdcc17","farmerProducts(address,uint256)":"fece8772","getActiveProducts()":"ca0f46c0","getOrdersForProduct(uint256)":"60abce52","getProduct(uint256)":"b9db15b4","orders(uint256)":"a85c38ef","owner()":"8da5cb5b","productOrders(uint256,uint256)":"fd65db5f","products(uint256)":"7acc0b20","renounceOwnership()":"715018a6","transferOwnership(address)":"f2fde38b","updateProduct(uint256,string,string,uint256,uint256)":"f94eb182"},"id":29}